:100000000C945D000C9485000C9485000C94850084
:100010000C9485000C9485000C9485000C9485004C
:100020000C9485000C9485000C9485000C9485003C
:100030000C9485000C9485000C9485000C9485002C
:100040000C94CA050C9485000C9498050C947205C8
:100050000C9485000C9485000C9485000C9485000C
:100060000C9485000C94850000000008000201003B
:100070000003040700000000000000000000000072
:10008000250028002B0000000000240027002A0083
:10009000040404040404040402020202020203032E
:1000A0000303030301020408102040800102040836
:1000B0001020010204081020140611241FBECFEFE7
:1000C000D8E0DEBFCDBF11E0A0E0B1E0EAE9F1E1A8
:1000D00002C005900D92AA38B107D9F722E0AAE82C
:1000E000B1E001C01D92A435B207E1F710E0CDE503
:1000F000D0E004C02197FE010E94C508CC35D1078D
:10010000C9F70E945E060C94CB080C94000090E0A6
:10011000FC01EC55FF4F249180579F4FFC018491C7
:10012000882399F090E0880F991FFC01EA57FF4F50
:10013000A591B491FC01E458FF4F859194918FB73C
:10014000F894EC91E22BEC938FBF089580E48093B8
:100150007C0080917A00806480937A0080917A009C
:1001600086FDFCCF80917800909179000895AF9240
:10017000BF92CF92DF92EF92FF920F931F93CF9394
:10018000DF936C017B018B01040F151FEB015E01F6
:10019000AE18BF08C017D10759F06991D601ED918B
:1001A000FC910190F081E02DC6010995892B79F72A
:1001B000C501DF91CF911F910F91FF90EF90DF90DC
:1001C000CF90BF90AF900895FC01538D448D252FA3
:1001D00030E0842F90E0821B930B541710F0CF96E1
:1001E000089501970895FC01918D828D981761F013
:1001F000A28DAE0FBF2FB11D5D968C91928D9F5F2A
:100200009F73928F90E008958FEF9FEF0895FC0108
:10021000918D828D981731F0828DE80FF11D858DBB
:1002200090E008958FEF9FEF0895FC01918D228D4E
:10023000892F90E0805C9F4F821B91098F739927D3
:1002400008958FE991E00E94150121E0892B09F4BE
:1002500020E0822F089580E090E0892B29F00E9411
:10026000210181110C9400000895FC01A48DA80FB8
:10027000B92FB11DA35ABF4F2C91848D90E00196E8
:100280008F739927848FA689B7892C93A089B18908
:100290008C91837080648C93938D848D981306C0A9
:1002A0000288F389E02D80818F7D80830895EF920D
:1002B000FF920F931F93CF93DF93EC0181E0888F20
:1002C0009B8D8C8D98131AC0E889F989808185FFF0
:1002D00015C09FB7F894EE89FF896083E889F98992
:1002E00080818370806480839FBF81E090E0DF9194
:1002F000CF911F910F91FF90EF900895F62E0B8DE7
:1003000010E00F5F1F4F0F731127E02E8C8D8E11A1
:100310000CC00FB607FCFACFE889F989808185FF08
:10032000F5CFCE010E943501F1CFEB8DEC0FFD2F03
:10033000F11DE35AFF4FF0829FB7F8940B8FEA89C3
:10034000FB8980818062CFCFCF93DF93EC01888DD2
:100350008823B9F0AA89BB89E889F9898C9185FD40
:1003600003C0808186FD0DC00FB607FCF7CF8C91CE
:1003700085FFF2CF808185FFEDCFCE010E94350150
:10038000E9CFDF91CF91089590E0FC01E859FF4F4C
:100390002491FC01EC55FF4F3491FC01E057FF4FD5
:1003A000E491EE23C9F0222339F0233001F1A8F4BF
:1003B000213019F1223029F1F0E0EE0FFF1FE4584F
:1003C000FF4FA591B4918FB7F894EC91611126C0BD
:1003D00030953E233C938FBF08952730A9F02830F5
:1003E000C9F0243049F7809180008F7D03C080914F
:1003F00080008F7780938000DFCF84B58F7784BDB6
:10040000DBCF84B58F7DFBCF8091B0008F77809359
:10041000B000D2CF8091B0008F7DF9CF3E2BDACFE4
:100420001F93CF93DF93182FEB010E948700209733
:1004300039F460E0812FDF91CF911F910C94C401BA
:10044000CF3FD10511F461E0F5CFE12FF0E0E8599D
:10045000FF4FE491E33031F140F4E130B1F0E230AC
:10046000E1F0C038D1057CF7E4CFE73029F1E8307E
:1004700059F1E430B1F78091800080628093800070
:10048000D0938B00C0938A0004C084B5806884BD7B
:10049000C7BDDF91CF911F91089584B5806284BD5F
:1004A000C8BDF7CF80918000806880938000D09392
:1004B0008900C0938800EDCF8091B0008068809360
:1004C000B000C093B300E5CF8091B000806280930C
:1004D000B000C093B400DDCF3FB7F89480918F0196
:1004E00090919001A0919101B091920126B5A89BA5
:1004F00005C02F3F19F00196A11DB11D3FBFBA2FB6
:10050000A92F982F8827BC01CD01620F711D811D75
:10051000911D42E0660F771F881F991F4A95D1F7FA
:1005200008958F929F92AF92BF92CF92DF92EF92F7
:10053000FF924B015C010E946C026B017C010E94E6
:100540006C026C197D098E099F09683E7340810514
:100550009105A8F321E0821A9108A108B10888EE5C
:10056000C80E83E0D81EE11CF11C81149104A10483
:10057000B10429F7FF90EF90DF90CF90BF90AF903C
:100580009F908F900895089590E080E008950F93D4
:100590001F93CF93DF938C01EB0197FF1AC061E0AB
:1005A00086E00E94C401B80161507F4F89E00E943B
:1005B0001002D7FF14C061E083E00E94C401BE01B5
:1005C00061507F4F85E0DF91CF911F910F910C9487
:1005D000100260E086E00E94C401B801E7CF60E04D
:1005E00083E00E94C401BE01EDCFCF93DF93C82FFB
:1005F000D62F642F8FE00E94C4016D2F80E10E94EE
:10060000C4016C2F81E1DF91CF910C94C40150E0C3
:1006100040E070E060E090E080E00E94F5020E941F
:10062000A600811592400CF468C081E090E09093A0
:1006300096018093950141E050E070E060E090E029
:1006400080E00E94F5020E94A600811592400CF401
:1006500059C081E090E0909398018093970150E019
:1006600040E061E070E090E080E00E94F5020E94CE
:10067000A600811592400CF44AC081E090E090936E
:100680009A018093990141E050E061E070E090E0D0
:1006900080E00E94F5020E94A60081159240E4F1DC
:1006A00081E090E090939C0180939B0150E040E0BA
:1006B00070E060E081E090E00E94F5020E94A600F8
:1006C0008115924074F181E090E090939E018093B7
:1006D0009D0141E050E070E060E081E090E00E9428
:1006E000F5020E94A6008115924004F181E090E09D
:1006F0009093A00180939F0108951092960110920B
:10070000950199CF1092980110929701A8CF10925D
:100710009A0110929901B7CF10929C0110929B01FF
:10072000C5CF10929E0110929D01D3CF1092A001CF
:1007300010929F0108958F929F92AF92BF920F9354
:100740001F93CF93DF93CDB7DEB7A1970FB6F89481
:10075000DEBF0FBECDBF19A2423008F44AE08E01C1
:100760000F5D1F4F842E912CB12CA12CA50194015B
:100770000E94A308E62FB901CA01EA3044F5E05D02
:10078000D801EE938D01232B242B252B79F790E0B4
:1007900080E0109769F0FD0101900020E9F73197A2
:1007A000AF014A1B5B0BBD018CE392E00E94B700D6
:1007B000A1960FB6F894DEBF0FBECDBFDF91CF91EB
:1007C0001F910F91BF90AF909F908F900895E95C1B
:1007D000D7CFFC0101900020E9F73197AF01481B0A
:1007E000590BBC018CE392E00C94B700CF93DF93DC
:1007F000EC0160E08E810E94C40161E08E810E9464
:10080000C40160E08E810E94C4018BE891E00197F1
:10081000F1F7DF91CF910895CF92DF92EF92FF929F
:100820000F931F93CF93DF936C017C0187E0E80E59
:10083000F11CD0E0C0E0062F10E0B8010C2E02C081
:10084000759567950A94E2F76170F70181917F01D0
:100850000E94C4012196C430D10579F7C601DF9109
:10086000CF911F910F91FF90EF90DF90CF900C945C
:10087000F603CF92DF92EF92FF920F931F93CF93E5
:10088000DF93EC01F62E642F8C810E94C4018D81D0
:100890008F3F19F060E00E94C4010F2D10E08F859A
:1008A00084FF25C06E0187E0C80ED11CF12CE12C1D
:1008B000B8010E2C02C0759567950A94E2F7617035
:1008C000F60181916F010E94C401FFEFEF1AFF0A48
:1008D00088E0E816F10461F7CE01DF91CF911F9116
:1008E0000F91FF90EF90DF90CF900C94F603B8013A
:1008F00084E0759567958A95E1F7CE010E940C0416
:100900006F2DCE01DF91CF911F910F91FF90EF904E
:10091000DF90CF900C940C0440E0682F8CE392E0C1
:100920000C943904CF93DF93823029F490914B02D9
:10093000986090934B0280934F021092500280E493
:100940008093510280E18093520280E580935302AC
:10095000809140020E948700809141028F3F11F0F8
:100960000E948700809142020E948700CCE3D2E07F
:100970009E012C53324080914B0284FD0AC084E0DA
:1009800090E02196281739073CF48E810E94870059
:10099000EFCF88E090E0F5CF8BE39DE00197F1F792
:1009A00060E0809140020E94C40160E080914202B8
:1009B0000E94C401809141028F3F19F060E00E94C3
:1009C000C40180914B0284FD39C063E08CE392E066
:1009D0000E940C04CBE4D6E4CE010197F1F763E06A
:1009E0008CE392E00E940C042197F1F763E08CE322
:1009F00092E00E940C0483E592E00197F1F762E037
:100A00008CE392E00E940C0480914B0280620E9471
:100A10008C0484E080934C028CE00E948C0481E082
:100A20000E948C048BE39FE10197F1F782E08093B1
:100A30004D0286E0DF91CF910C948C0480620E947D
:100A40008C048BE496E40197F1F780914B0280626D
:100A50000E948C0483E592E00197F1F780914B02AC
:100A600080620E948C04D0CF90914F02691710F0E1
:100A70006FEF690FE62FF0E0E45CFD4F9489890F7A
:100A800080680C948C0441E00E94390481E090E07D
:100A90000895CF92DF92EF92FF926C01990FEE08CA
:100AA000FF08F7FE16C041E06DE28CE392E00E9481
:100AB000390466277727CB016C197D098E099F09B8
:100AC0004AE00E949B030196FF90EF90DF90CF9049
:100AD00008954AE0C701B601FF90EF90DF90CF90F4
:100AE0000C949B031F920F920FB60F9211242F9319
:100AF0003F934F935F936F937F938F939F93AF93A6
:100B0000BF93EF93FF938FE991E00E943501FF912E
:100B1000EF91BF91AF919F918F917F916F915F9175
:100B20004F913F912F910F900FBE0F901F901895EE
:100B30001F920F920FB60F9211242F938F939F93B2
:100B4000EF93FF93E091AF01F091B0018081E091CC
:100B5000B501F091B60182FD1BC090818091B80172
:100B60008F5F8F732091B901821741F0E091B80136
:100B7000F0E0E156FE4F958F8093B801FF91EF9121
:100B80009F918F912F910F900FBE0F901F901895EE
:100B90008081F4CF1F920F920FB60F9211242F93E2
:100BA0003F938F939F93AF93BF9380918B019091CD
:100BB0008C01A0918D01B0918E0130918A0123E0CA
:100BC000230F2D3758F50196A11DB11D20938A01E1
:100BD00080938B0190938C01A0938D01B0938E0133
:100BE00080918F0190919001A0919101B09192011B
:100BF0000196A11DB11D80938F0190939001A09348
:100C00009101B0939201BF91AF919F918F913F91CC
:100C10002F910F900FBE0F901F90189526E8230F6D
:100C20000296A11DB11DD2CFEFE9F1E0138212822D
:100C300088EE93E0A0E0B0E084839583A683B78339
:100C400084E091E09183808385EC90E095878487B0
:100C500084EC90E09787868780EC90E0918B808B86
:100C600081EC90E0938B828B82EC90E0958B848B6F
:100C700086EC90E0978B868B118E128E138E148EDD
:100C8000ECE3F2E01382128286E191E091838083AB
:100C900082E084838FEF858384E0868387E0878387
:100CA00088E080878CE081878DE0828713861486B8
:100CB00015861686178681E00C949204789484B584
:100CC000826084BD84B5816084BD85B5826085BD48
:100CD00085B5816085BD80916E00816080936E00D6
:100CE00010928100809181008260809381008091C8
:100CF0008100816080938100809180008160809379
:100D000080008091B10084608093B1008091B00038
:100D100081608093B00080917A00846080937A0033
:100D200080917A00826080937A0080917A0081605D
:100D300080937A0080917A00806880937A00109284
:100D4000C1008FE00E94870080E10E94870081E15E
:100D50000E94870083E00E94870085E00E94870050
:100D600086E00E94870089E00E94870082E00E945E
:100D70009204E091AF01F091B00182E08083E091B4
:100D8000AB01F091AC011082E091AD01F091AE01A8
:100D90008FEC80831092B701E091B301F091B40120
:100DA00086E08083E091B101F091B20180818061A1
:100DB0008083E091B101F091B201808188608083ED
:100DC000E091B101F091B201808180688083E0916F
:100DD000B101F091B20180818F7D8083CBE3DFE1AF
:100DE00000E010E00E9407030E94070381E00E94D8
:100DF0008C04CE010197F1F760E080E00E94340599
:100E00008EE191E00E94E90360E088E00E943405F1
:100E100080919501909196010E94490560E089E0DA
:100E20000E94340580919701909198010E94490594
:100E300060E08AE00E9434058091990190919A01C6
:100E40000E94490560E08BE00E94340580919B017F
:100E500090919C010E94490560E08CE00E9434055D
:100E600080919D0190919E010E94490560E08DE076
:100E70000E94340580919F019091A0010E94490534
:100E800064E670E080E090E00E949102809195011C
:100E900090919601009709F06BC080919701909115
:100EA00098010097F1F58091990190919A01813014
:100EB000910509F0BBC020919B0130919C0121302C
:100EC000310509F0B3C020919D0130919E01232B83
:100ED00009F0ACC020919F013091A001232B09F0B3
:100EE000A5C06FEF70E08FEF90E00E94C70261E055
:100EF00080E00E94340586E291E00E94E90368EEFA
:100F000073E080E090E00E9491020115110509F460
:100F100069CF0E942101882309F464CF0E94000058
:100F200061CF019791F78091990190919A01019772
:100F300061F780919B0190919C01892B31F7809101
:100F40009D0190919E01892B01F780919F019091C5
:100F5000A001892BD1F66FEF70E088EC90E00E9441
:100F6000C70261E080E00E9434058EE291E0C5CFC7
:100F7000019759F6809197019091980181309105E0
:100F800049F58091990190919A01892B09F0BDCF83
:100F900080919B0190919C01892B09F0B6CF8091A3
:100FA0009D0190919E01892B09F0AFCF80919F0107
:100FB0009091A001892B09F0A8CF6FEF70E084E633
:100FC00090E00E94C70261E080E00E9434058DE35A
:100FD00091E093CF892B09F098CF8091990190915E
:100FE0009A01892B09F091CF80919B0190919C01EE
:100FF000892B09F08ACF80919D0190919E01892BC8
:1010000009F083CF80919F019091A001892B09F075
:101010007CCF6FEF70E090E080E00E94C70261E05B
:1010200080E00E9434058CE491E067CF009709F5D9
:1010300020919B0130919C0121303105D1F4209108
:101040009D0130919E012130310599F420919F013D
:101050003091A001232B69F468EC70E08FEF90E0F1
:101060000E94C70261E080E00E94340586E591E0BD
:1010700044CF009709F520919B0130919C01232BCF
:10108000D9F420919D0130919E0121303105A1F4C8
:1010900020919F013091A0012130310569F464E66F
:1010A00070E08FEF90E00E94C70261E080E00E9454
:1010B000340586E691E021CF009701F520919B0150
:1010C00030919C01232BD1F420919D0130919E0100
:1010D000232BA1F420919F013091A00121303105F3
:1010E00069F470E060E08FEF90E00E94C70261E079
:1010F00080E00E94340586E791E0FFCE892B09F05D
:1011000004CF80919B0190919C01892B09F0FDCE29
:1011100080919D0190919E01892B09F0F6CE8091DE
:101120009F019091A001892B09F0EFCE61E07FEF44
:1011300081E09FEF0E94C70261E080E00E943405D9
:1011400081E891E0DACEA1E21A2EAA1BBB1BFD01B9
:101150000DC0AA1FBB1FEE1FFF1FA217B307E40796
:10116000F50720F0A21BB30BE40BF50B661F771FEE
:10117000881F991F1A9469F76095709580959095CE
:101180009B01AC01BD01CF010895EE0FFF1F05903B
:0A119000F491E02D0994F894FFCFCC
:10119A00000000005701B700E400A4011501F300A4
:1011AA000701000000004305B700C402C3025365EB
:1011BA006E736F723A00466F72776172640054758B
:1011CA00726E206C65667420736C6F77005475724A
:1011DA006E206C656674206661737400466163658F
:1011EA00206C656674005475726E20726967687443
:1011FA0020736C6F77005475726E20726967687419
:10120A002066617374004661636520726967687459
:0A121A00004261636B7761726400AB
:00000001FF
